:020000040800F2
:10000000E0020020DD010008EB160008A71500083B
:10001000E9160008AD070008191D000800000000DF
:100020000000000000000000000000000F170008A2
:10003000AF070008000000000D1700087517000842
:10004000F7010008F7010008F7010008F7010008B0
:10005000F7010008F7010008F7010008F7010008A0
:10006000F7010008F7010008F7010008F701000890
:10007000F7010008F7010008F7010008F701000880
:10008000F7010008F7010008F70100080000000070
:10009000000000000000000000000000F701000860
:1000A000F7010008F7010008F7010008F701000850
:1000B000000000000000000000000000F701000840
:1000C000F7010008F7010008F7010008F701000830
:1000D000F7010008F7010008F70100080000000020
:1000E000F7010008F7010008000000000000000010
:1000F000000000000000000000000000F701000800
:100100000000000000000000F701000800000000EF
:100110000000000000000000F701000800000000DF
:10012000F7010008F7010008F7010008F7010008CF
:10013000F7010008000000000000000000000000BF
:1001400000000000000000000000000000000000AF
:10015000F7010008F7010008F7010008F70100089F
:10016000000000000000000000000000000000008F
:10017000000000000000000000000000000000007F
:10018000F7010008F701000800000000000000006F
:1001900000000000F701000800000000000000005F
:1001A000000000000000000000000000000000004F
:1001B000000000000000000000000000F70100083F
:1001C000F7010008F7010008DFF80CD000F0CAFAC8
:1001D0000048004765260008E002002006488047E6
:1001E00006480047FEE7FEE7FEE7FEE7FEE7FEE71C
:1001F000FEE7FEE7FEE7FEE7FD170008C90100087D
:100200002DE9F05F0546002092469B46884606464B
:10021000814640241BE0284641464746224600F0DE
:100220005DF953465A46C01A914110D311461846FB
:10023000224600F044F92D1A67EB01084F4622468A
:100240000120002100F03BF917EB00094E41201E70
:10025000A4F10104DFDC484631462A464346BDE8A6
:10026000F09F40EA01039B0703D009E008C9121F71
:1002700008C0042AFAD203E011F8013B00F8013B60
:10028000521EF9D27047D2B201E000F8012B491E8C
:10029000FBD270470022F6E710B513460A46044623
:1002A0001946FFF7F0FF204610BD421E12F8013F2D
:1002B000002BFBD111F8013B02F8013B002BF9D1D7
:1002C0007047421C10F8011B0029FBD1801A7047AF
:1002D0002DE9FE4F81EA030404F0004421F00041BF
:1002E00000944FF0000B23F0004350EA01045ED06D
:1002F00052EA03045BD0C3F30A54C1F30A552C44F9
:10030000A4F2F3340194A0FB0254C1F3130141F4AD
:100310008011C3F3130343F4801301FB024400FB79
:10032000034E840A970A44EA815447EA8357A4FBA0
:10033000076802958D0A05FB07854FEA932C04FB9D
:100340000C542705029D4FEA065847EA1637B5EBCD
:1003500008056EEB070C870E920E47EA811742EAFA
:100360008312A7FB0201B6EB0B0164EB00042B0D1B
:1003700043EA0C335E1844EB1C50DA465146E7FB67
:100380000201C5F313044FEA0B3343EA14534FEA57
:100390000432019C43EA0603A4F10C040294009C7D
:1003A000CDE900B400F0B9F803B0BDE8F08F00204B
:1003B0000146F9E72DE9F04D81EA030404F0004B12
:1003C00021F0004514464FF0000A23F0004150EAA6
:1003D000050220D054EA01021DD0C5F30A57024697
:1003E000C5F31303C1F31300C1F30A5640F480159B
:1003F00043F48013A7EB0608101BD64608F2FD381D
:1004000073EB050002D308F1010801E092185B418B
:10041000B8F1000F03DA00200146BDE8F08D00209E
:100420004FF48011064684460EE0171B73EB050758
:1004300005D3121B63EB050306434CEA010C490884
:100440004FEA300092185B4150EA0107EDD152EAC1
:10045000030012D082EA040083EA0501084305D0B4
:10046000101BAB4106D20122002306E000224FF010
:10047000004302E06FF0010253101AEB06004CEB50
:10048000085110EB0A0041EB0B01BDE8F04D00F004
:1004900035B830B50B46014600202022012409E082
:1004A00021FA02F59D4205D303FA02F5491B04FA2D
:1004B00002F52844151EA2F10102F1DC30BD202A0C
:1004C00004DB203A00FA02F1002070479140C2F1AB
:1004D000200320FA03F3194390407047202A04DBDD
:1004E000203A21FA02F00021704721FA02F3D040AD
:1004F000C2F12002914008431946704710B5141EFE
:1005000073F1000408DA401C41F1000192185B41CC
:100510001A4301D120F0010010BD2DE9F04D9246A3
:100520009B4611B1B1FA81F202E0B0FA80F22032BA
:100530009046FFF7C4FF04460F4640EA0A0041EA2E
:100540000B0153465A46084313D0114653EA0100A3
:1005500019D0C8F140025046FFF7C0FF05460E46CD
:10056000504659464246FFF7AAFF084305D00120EE
:1005700004E020463946BDE8F08D0020054346EAF8
:10058000E0762C4337430A986305E40AA0EB0800A1
:100590000022FD0A44EA47540A3002D500200146F1
:1005A000E9E7010510196941DDE9084500196941CC
:1005B000BDE8F04DA2E72DE9FE4F804681EA030039
:1005C000C00F0C46009021F0004123F00045B8EB2D
:1005D0000200A94105D24046214690461C460B46E2
:1005E000024623F00040104347D0270DC7F30A000E
:1005F000C3F30A510290401A019040286BDAC3F30A
:10060000130040F4801B0098924620B10023D2EBE7
:10061000030A63EB0B0B01985946C0F140025046A8
:10062000FFF74DFF06460D4650465946019A00F029
:10063000ABF810EB08006141002487EA115284EA0C
:10064000E7731A4340D0009A62B3019A012A4FEA35
:10065000075215DC001B61EB02014FF0004202EA79
:100660000752CDE90042001C41F5801132462B466D
:10067000FFF753FF03B0BDE8F08F40462146F9E78E
:10068000001B61EB0201001C41F5801300185B4167
:100690002018A2F5001747EB030140EAD570B61900
:1006A0006D4111E06D084FEA360645EAC0754FEA24
:1006B0000752001B61EB0201001C41F58011490843
:1006C0004FEA30000019514132462B4603B0BDE8D5
:1006D000F04FFFF713BF0098012240000023D0EB3A
:1006E000020263EBE073009821464FEAE074B8EB36
:1006F000000061EB0401E9E783F000435BE781F070
:10070000004158E7C1F30A52C1F3130140F2FF332D
:1007100041F480119A4202DA00200146704740F20B
:1007200033439A42A2F2334202DC5242FFF7D6BE72
:10073000FFF7C5BE30B5041E71F1000404DB4FF0B5
:100740000044404264EB0101141E73F1000405DB18
:100750001C464FF00043524263EB0403994208BF2A
:10076000904230BD064C074D06E0E06840F00103C2
:1007700094E8070098471034AC42F6D3FFF728FD01
:10078000A8270008C8270008202A06DBCB17203A34
:1007900041FA02F043EAE07306E041FA02F3D04086
:1007A000C2F120029140084319467047FEE77047A6
:1007B00010B5044601224021054800F06DF90122E0
:1007C0004021044800F068F9012084F8300010BD91
:1007D000000402400000024070B54379012B1AD09A
:1007E000012646710223037105682C6840F6FE73EA
:1007F00093409C43D1E900310B43934023432B604A
:1008000001680B68C0249440A3430B60067100216B
:100810004171084670BD022070BD70B5040003D060
:100820002079002510B105E0012070BD65712046DA
:1008300000F008F8022020712561012020710020BD
:1008400070BD000010B586B0044614216846FFF75D
:1008500021FD1149206888421CD1104800210268FE
:1008600042F000520260006800F0005005900B4812
:100870001038026842F001020260006800F00100D6
:100880000590202000900320CDE90101694604482D
:1008900000F04CF806B010BD007400404038024033
:1008A0000000024018B5046800940068104421B1AB
:1008B000143000900360002018BD0830F9E730B50F
:1008C0004279012A16D00122427102230371036882
:1008D0001D6802FA01F425431D60002901680B68B8
:1008E0000AD00C6803F4802304F46014B3F5802F5D
:1008F0000FD015E0022030BD0C6803F0040304F0B3
:100900003804042B0CD1382C0AD14B6843F0010376
:1009100005E0B4F5601F03D14B6843F002034B6060
:10092000027100214171084630BD00002DE9F84FE9
:10093000DFF84CB100224FF001084FF0030A4FF0EE
:100940000F090BF1040E00BF0B6808FA02F42340F4
:10095000A3427DD14D68022D01D0122D0ED1D508B4
:1009600000EB850CDCF820505607F70E09FA07F665
:10097000B5430E69BE402E43CCF820600668550092
:100980000F790AFA05FC07F0030726EA0C06AF40C8
:10099000374307604E68012E05D0022E03D0112E7A
:1009A00001D0122E0ED18768CE6827EA0C07AE4020
:1009B0003E4386604668A6430C79C4F30014944015
:1009C00034434460C4688E6824EA0C04AE40264375
:1009D000C6604C68E4004DD52A4C256845F4804536
:1009E0002560246822F0030504F480440094264C1A
:1009F0002E19D6F8084895072F0F09FA07F5AC43CA
:100A0000224DA84201D100250AE0214DA84201D182
:100A1000012505E01F4DA84201D1022500E0072570
:100A2000BD402543C6F80858DBF800405D464E68D7
:100A30009C43F60300D51C432C60DEF8004075464D
:100A40004E689C43B60300D51C432C600C4D00E05F
:100A500010E008352C684E689C43F60200D51C4314
:100A60002C60074D0C352C684E689C43B60200D5AF
:100A70001C432C60521C102AFFF466AFBDE8F88FAF
:100A8000003C014044380240003001400000024078
:100A900000040240000802400AB181617047090465
:100AA000FBE700000148806870470000000000205C
:100AB000024881680278114481607047000000207C
:100AC0000B4810B5016841F400710160016841F400
:100AD00080610160016841F480710160032000F0D1
:100AE00061F8002000F006F800F024F8002010BDA6
:100AF000003C024070B50D4D04464FF47A712878E1
:100B0000B1FBF0F00A490968B1FBF0F000F0D8FA47
:100B100048B9102C07D200222146501E00F022F8BE
:100B200000206C6070BD012070BD0000000000203E
:100B30000C0000200A4808B5016841F480410160BA
:100B4000006800F4804000900548001F016841F0F3
:100B500080510160006800F08050009008BD0000E6
:100B600044380240F0B40E4B1B680C46C3F302231A
:100B7000C3F10705042D00D90425191D072901D249
:100B8000002300E0DB1E012606FA05F1491E214084
:100B900099409E40761E16403143F0BC00F0A6BD41
:100BA0000CED00E0064900F0070208684FF6FF036D
:100BB000184040EA0220034A1043086070470000D2
:100BC0000CED00E00000FA052DE9F0470E460500A7
:100BD00065D0DFF81481D8F80000F7B200F00F00FC
:100BE000B04207D288F80070D8F8000000F00F007B
:100BF000B04254D128683D4C810712D5400703D537
:100C0000206840F4E05020602878000703D5206871
:100C100040F4604020602068A96820F0F00008439C
:100C200020602878C0072DD030496868083901282D
:100C300012D0022813D0032811D00968890700298F
:100C40002DDA216821F0030101432160FFF72AFF1B
:100C5000814641F2883A0EE009688903EFE70968A6
:100C60008901ECE7FFF71EFFA0EB0901514502D90E
:100C70000320BDE8F0872068696800F00C00B0EB45
:100C8000810FEFD1D8F80010404601F00F01B142BA
:100C900007D90770006800F00F00B04201D00120B2
:100CA000E7E72878400705D52068E96820F4E05098
:100CB000084320602878000706D52068296920F4B9
:100CC000604040EAC100206000F036F82168084A20
:100CD000C1F30311515CC840064908600020FFF7CA
:100CE00009FF0020C5E70000003C02400838024030
:100CF000902700080C000020044805490068096896
:100D0000044AC1F38221515CC84070470C000020A6
:100D100008380240A027000804480549006809680F
:100D2000044AC1F34231515CC84070470C000020B6
:100D300008380240A0270008154810B5006810F0D8
:100D40000C02144813D01449042A0FD0082A0ED1DB
:100D50000F4C241F2268236802F03F025B0207D574
:100D60002068C0F38810A0FB010106E0084610BD12
:100D70002168C1F38811A1FB00010023FFF740FAAD
:100D80002168C1F30141491C4900B0FBF1F010BDDD
:100D9000083802400024F40040787D012DE9F84F26
:100DA00005460078DFF800B3C04CC0074AD0DBF836
:100DB00000105846C1F38101012908D00068C0F332
:100DC000810002280AD1201D0068400206D5206853
:100DD000800337D56868002872D033E06868B0F5C2
:100DE000803F10D0B0F5A02F206810D020F48030C4
:100DF0002060206820F4802020606868A8B1FFF798
:100E000051FE06460DE0206840F48030F4E740F4DF
:100E100080202060F7E700BFFFF744FE801B6428B6
:100E20006FD820688003F7D50CE0FFF73BFE06463D
:100E300005E000BFFFF736FE801B6428F0D820686D
:100E40008003F7D42878DFF8688280074FF0000924
:100E500040D5DBF80010584611F00C0F09D000689F
:100E6000C0F3810002280BD18F48001F00684002A8
:100E700006D42068800715D5E868012820D111E044
:100E8000E868B8B10120C8F80000FFF70BFE06467D
:100E900005E000BFFFF706FE801B0228C0D82068CF
:100EA0008007F7D52068296920F0F80040EAC100E2
:100EB00020600FE0C8F80090FFF7F4FD064606E05A
:100EC000EFE000BFFFF7EEFD801B022819D8206875
:100ED0008007F7D42878000722D5734E75486969D2
:100EE0006C3679B101210160FFF7DCFD074604E0B3
:100EF000FFF7D8FDC01B022803D830688007F7D55C
:100F00000EE089E0C0F80090FFF7CCFD074604E052
:100F1000FFF7C8FDC01B02287ED830688007F7D4D1
:100F20002878400768D5DFF880A100270AF1380A41
:100F3000DAF80000C0000BD4DAF8001041F080515C
:100F4000CAF80010DAF80000012700F08050009085
:100F5000594E3068C00510D4306840F4807030605D
:100F6000FFF7A0FD009005E0FFF79CFD0099401AF7
:100F7000022851D83068C005F6D54B4EA8686836AF
:100F800001280FD00528306810D020F00100306013
:100F9000306820F004003060A868B8B1FFF782FD27
:100FA00000900FE0306840F00100F4E740F00400EA
:100FB0003060F7E7FFF776FD0099411A41F288307B
:100FC000814266D830688007F4D50EE0FFF76AFDED
:100FD000009007E0FFF766FD0099411A41F2883062
:100FE000814256D830688007F4D42FB1DAF8001067
:100FF00021F08051CAF80010A869D0B3DBF80010C6
:10100000C1F3810102294CD00228484607D0C8F814
:101010006000FFF747FD00E03BE005463CE0474647
:10102000C8F86000FFF73EFD064604E0FFF73AFD12
:10103000801B02282DD820688001F7D4F5E907012C
:101040000843E9681D4A490802EB0141AA6841EAE0
:1010500082110843297C40EA0160297D40EA017140
:101060001148001F016001203866FFF71BFD05468F
:1010700005E014E0FFF716FD401B022809D82068A0
:101080008001F7D50BE000BFFFF70CFD401B0228E5
:1010900002D90320BDE8F88F20688001F4D4002035
:1010A000F8E70120F6E70000083802400038024067
:1010B00000004742800E4742007000400000FFFFE2
:1010C00010B5401EB0F1807F01D3012010BD4FF05C
:1010D000E02460610F21601700F008FB0020A06190
:1010E00007202061002010BD30B590F83820012A7B
:1010F00020D0012280F83820022380F8393003689C
:101100005C6824F070045C6003685C680D682C43C4
:101110005C6003689C6824F080049C6003689C68A1
:1011200049680C439C6080F83920002180F8381011
:10113000084630BD022030BD2DE9F0410D460400C7
:1011400003D094F8390018B108E00120BDE8F0811F
:10115000002084F83800204600F03AF8022084F895
:1011600039002068816821F007018160211D206815
:1011700000F06EFB226890689169166A2B68AF696F
:10118000034340F20330814341EA0721A868EF6935
:1011900008434FF6FC418843E96840EA07200143D1
:1011A00028692F6A000140EA0730084369686D69C1
:1011B00026F0AA0646EA0515294393602268906145
:1011C00020680162012084F839000020BEE7000099
:1011D00010B586B0044614216846FFF75BF8134942
:1011E0002068884220D112480021026842F00102A2
:1011F0000260006800F0010005900D481438026894
:1012000042F001020260006800F0010005904FF416
:1012100040700090022001900120CDE9020104906D
:1012200069460448FFF782FB06B010BD000001408C
:10123000443802400000024010B50446006891B1F5
:10124000042904D00122002100F030FB2068012293
:101250005FF0040100F02AFB2068016841F0010101
:101260000160002010BD01220021F3E710B586B017
:10127000044614216846FFF70DF80E49206888429D
:1012800015D10D480021026842F004020260006896
:1012900000F004000590102000900220CDE901012B
:1012A0000320CDE9031069460448FFF73FFB06B071
:1012B00010BD0000004001403038024000080240EC
:1012C00070B5044690F838000D4601280DD001266F
:1012D00084F83860022084F8390042B1042A18D01A
:1012E000082A2AD00C2A4DD139E0022070BD20688E
:1012F00000F0E8FA2068816941F008018161206806
:10130000816921F004018161206881692A691143A2
:1013100011E0206800F0FEFA2068816941F4006164
:1013200081612068816921F480618161206881691F
:101330002A6941EA0221816124E0206800F016FB5D
:101340002068C16941F00801C1612068C16921F0CC
:101350000401C1612068C1692A69114311E0206854
:1013600000F030FB2068C16941F40061C161206870
:10137000C16921F48061C1612068C1692A6941EABB
:101380000221C16184F83960002084F8380070BD02
:1013900010B5040003D094F8390010B107E0012023
:1013A00010BD002084F83800204600F00DF802201F
:1013B00084F83900211D206800F04AFA012084F8E1
:1013C0003900002010BD000008B5006806498842B9
:1013D00008D10648016841F480310160006800F4DA
:1013E0008030009008BD00000040014044380240B9
:1013F00010B504460068012200F058FA0749206839
:10140000884203D1416C41F4004141642068016885
:1014100041F001010160002010BD0000000001400A
:1014200070B5040004D094F83900002510B106E02E
:10143000012070BD84F83850204600F023F82420A5
:1014400084F839002068C16821F40051C160204649
:1014500000F0DAFA2068016921F490410161206806
:10146000416921F02A0141612068C16841F40051BD
:10147000C160E563202084F8390084F83A00002038
:1014800070BD000010B586B0044614216846FEF712
:1014900001FF13492068884220D11248016841F4B5
:1014A00000310160006800F4003005900D481038EC
:1014B000016841F0010101600068694600F0010027
:1014C00005900C2000900220019001200290032042
:1014D0000390072004900448FFF728FA06B010BDD7
:1014E0000044004040380240000002402DE9F8432B
:1014F000044690F839001F4616460D46202850D164
:10150000A5B19EB194F8380001284AD0012084F892
:1015100038004FF00008C4F83C80212084F83900DE
:10152000FFF7C0FAA6848146E68426E00120BDE8E4
:10153000F883E08C401EE084A0684B46B0F5805FE5
:101540004FF000024FF080012046009703D000F0DA
:10155000B1FBE8B90DE000F0ADFBC8B928882168FF
:10156000C0F308004860206908B16D1C05E0AD1C9F
:1015700003E0216815F8010B4860E08C0028D8D101
:101580004B46002240212046009700F093FB08B113
:101590000320CCE7202084F8390084F8388000202C
:1015A000C5E70220C3E7FEE72DE9F04186B014212C
:1015B0006846FEF76FFE1E480024016841F00101F5
:1015C0000160016801F001010591016841F0040129
:1015D0000160016801F004010591016841F0020118
:1015E00001600068134F00F00200059000224021C6
:1015F0003846FFF751FADFF840800022402140468C
:10160000FFF74AFA402501260095CDE901646946B5
:1016100038460394FFF78AF90095CDE901646946DD
:1016200040460394FFF782F906B0BDE8F081000060
:1016300030380240000002400004024010B58CB077
:1016400024216846FEF726FE00241248099410491A
:101650000A94C0E900144FF6FF71C0E90241046129
:1016600044610120CDE90004CDE902040494CDE9F0
:1016700005400794694607480894FFF75DFD099403
:1016800009A904480A94FFF72FFD0CB010BD000013
:10169000000001402400002010B588B01C216846DD
:1016A000FEF7F8FD0F480E49002401604FF47A71EF
:1016B000C0E90114FF21C0E90314FFF769FE6020AF
:1016C00000908020CDE90104002269460548049479
:1016D000FFF7F6FD0348FFF7C9FD08B010BD000095
:1016E0000040014060000020FEE770470907090E36
:1016F000002806DA00F00F0000F1E02080F8141D49
:10170000704700F1E02080F8001470477047704780
:1017100000B585B003460AA21421684600F0FEFA1F
:1017200008A16846FEF7C1FD6846FEF7CAFD82B211
:101730004FF47A7369460448FFF7D8FE05B000BD40
:10174000256400000D0A00009C00002010B5828D69
:1017500042F210738A1A12B2134444F62064A34270
:1017600003D94FF6FF739A1A12B2436A1A444262BF
:10177000818510BDFFF79CB930B593B03421684620
:10178000FEF788FD14210DA8FEF784FD19480025F9
:10179000016841F080510160006800F080501290B3
:1017A0001548016841F4404101600068022400F4DA
:1017B0004040129001200390102004900094069461
:1017C0000820CDE907506420CDE909040420CDE9C3
:1017D0000B046846FFF7E2FA0DA90F2081E83100FB
:1017E000E002CDE9100503210DA8FFF7EDF913B0D4
:1017F00030BD0000403802400070004010480168D1
:1018000041F4700101600F48016841F0010101607D
:101810000C4A00210832116002680B4B1A4002602A
:10182000031D0A4A1A60026822F4802202600548F9
:101830000C3001600249580680390860704700008A
:1018400088ED00E000380240FFFFF6FE1030002473
:1018500030B50268114B124C984201D0A04203D11E
:1018600022F070054A682A43984207D0A04205D06A
:101870000C4CA04202D00C4CA04203D122F4407484
:10188000CA68224302608A68C2620A688262984219
:1018900001D1096901630121416130BD00000140AE
:1018A000000C0040004001400048014010B50123F9
:1018B000046A8B409C430462036A8A4013430362B8
:1018C00010BD000030B5026A22F001020262026A15
:1018D0004368846924F073050C682C4322F00205E8
:1018E0008A682A430A4DA8420BD122F00805CA682B
:1018F00023F440732A434D6922F004021D438B698F
:101900002B434360846149684163026230BD00003B
:101910000000014030B5026A22F010020262026A41
:10192000436884690D6824F4E64444EA05248D681C
:1019300022F0200242EA05120B4DA8420ED1CD68DA
:1019400022F0800242EA05124D6923F4406343EA23
:1019500085038D6922F0400243EA85034360846178
:1019600049688163026230BD0000014030B5026AFF
:1019700022F480720262036A4268C46923F400732D
:1019800024F073050C682C438D6843EA05230C4D45
:10199000A8420ED1CD6823F4006343EA05234D69C4
:1019A00022F4405242EA05128D6923F4806342EA30
:1019B00005124260C4614968C163036230BD000022
:1019C0000000014030B5026A22F480520262046ACB
:1019D0004268C3690D6823F4E64343EA05238D6832
:1019E00024F4005444EA0534064DA84204D14D695C
:1019F00022F4804242EA85124260C3614968016470
:101A0000046230BD000001402DE9F0410446006849
:101A1000016921F44052E168114301612168C868FD
:101A200049F20C6290432369A268E5691A4363692D
:101A30002B431A430243CA602168486920F440726C
:101A4000A06910434861E1696425B1F5004F9748EA
:101A5000974A21684FF032083FD0914201D081422D
:101A60007CD1FFF759F900EBC00101EB0010616870
:101A70008900B0FBF1F6FFF74FF900EBC00101EB75
:101A8000001061688900B0FBF1F0B0FBF5F06FF079
:101A90001801484306EB800108EB0110B0FBF5F09C
:101AA00000F0F006FFF738F900EBC00101EB001081
:101AB00061688900B0FBF1F0B0FBF5F006EB0016B1
:101AC000FFF72AF900EBC00101EB00106168890003
:101AD000B0FBF1F7FFF720F9D2E0914201D081424B
:101AE0003DD1FFF719F900EBC00101EB001061686F
:101AF0004900B0FBF1F0B0FBF5F00601FFF70CF97F
:101B000000EBC00101EB001061684900B0FBF1F788
:101B1000FFF702F900EBC00101EB0010616849001A
:101B2000B0FBF1F0B0FBF5F06FF01801484307EBA4
:101B3000800108EBC100B0FBF5F000F0F80006EB07
:101B40004006FFF7E9F800EBC00101EB0010616807
:101B50004900B0FBF1F7FFF7DFF83CE055E0FFF795
:101B6000CBF800EBC00101EB001061684900B0FB4D
:101B7000F1F0B0FBF5F00601FFF7BEF800EBC00195
:101B800001EB001061684900B0FBF1F7FFF7B4F812
:101B900000EBC00101EB001061684900B0FBF1F0FF
:101BA000B0FBF5F06FF01801484307EB800108EB3C
:101BB000C100B0FBF5F000F0F80006EB4006FFF7BF
:101BC0009BF800EBC00101EB001061684900B0FB1D
:101BD000F1F7FFF791F800EBC00101EB001061682D
:101BE0004900B0FBF1F0B0FBF5F06FF0180148438D
:101BF00007EB800108EBC100B0FBF5F000F0070037
:101C0000216830448860BDE8F081FFF775F800EB8B
:101C1000C00101EB001061688900B0FBF1F6FFF72D
:101C20006BF800EBC00101EB001061688900B0FBAC
:101C3000F1F0B0FBF5F06FF01801484306EB8001BE
:101C400008EB0110B0FBF5F000F0F006FFF754F8D8
:101C500000EBC00101EB001061688900B0FBF1F0FE
:101C6000B0FBF5F006EB0016FFF746F800EBC001FD
:101C700001EB001061688900B0FBF1F7FFF73CF859
:101C800000EBC00101EB001061688900B0FBF1F0CE
:101C9000B0FBF5F06FF01801484307EB800108EB4B
:101CA0000110B0FBF5F000F00F00A9E700140140AF
:101CB000001001402DE9F041984617460E460446B3
:101CC000069D1DE0681C1BD02DB1FEF7EBFEA0EBBE
:101CD0000800A84214D92068C16821F4D071C160FD
:101CE0002068416921F001014161202084F8390018
:101CF00084F83A00002084F838000320BDE8F08121
:101D00002068006836EA000004D00020B842D9D02C
:101D10000020F3E70120F9E7FEE700000FB41CB54F
:101D20000246002007AC00290BD0491ECDE9002156
:101D3000054B6A462146069800F0DAF8009A002121
:101D400011701CBC5DF814FB1F26000802E008C8D7
:101D5000121F08C1002AFAD170477047002001E025
:101D600001C1121F002AFBD1704700002DE9FF5F5F
:101D700082B00021DDE90430020DDDF840B00343FC
:101D800018D044F61050A2F2FF32424315141198B5
:101D900001281FD0A5EB0B00401C5FEA000A4FF0A2
:101DA00000064E4FDFF83891B046504615D5CAF1BF
:101DB000000413E0119801244AA3012801D16FEA1D
:101DC0000B010298119AC0E90031C0E9024206B045
:101DD000BDE8F09FCBF10000DFE704460021404A58
:101DE000491842EB0450CDE9001012E0E00707D09B
:101DF00032463B4640464946FEF76AFA80468946E7
:101E000032463B4610461946FEF762FA06460F4632
:101E10006410002CEAD1DDE90401DDE90023BAF108
:101E2000000F06DAFEF754FA42464B46FEF750FA28
:101E300005E0FEF7BFFA42464B46FEF7BBFA044602
:101E40000E460022284BFEF775FC03D84FF0FF30FA
:101E5000014607E00022254B20463146FEF7ABFB4A
:101E6000FEF750FC102409E0002C0ADB0A220023B4
:101E7000FEF7C6F9039B30321A55641E50EA010280
:101E8000F2D1641C039AC4F111031444119A012A7B
:101E900003D0012208430DD10AE0084304D00020FA
:101EA0004FF0110B119072E7A3EB0B056D1E0DE0C7
:101EB0005B4504DD4FF0000205F1010504E003DAA3
:101EC0004FF00002A5F10105002AECD0029811990B
:101ED000C0E90231C0E9004579E700000000144084
:101EE0000000F03F300000000000F0430000E03F41
:101EF0002DE9FF4F95B09B468946064600250FE227
:101F0000252877D100242746F84A0121059400E0CE
:101F1000044316F8013F203B01FA03F01042F7D1C9
:101F200030782A2811D06FF02F033078A0F13002DA
:101F3000092A16D8059A44F0020402EB820203EB48
:101F400042021044761C0590EFE759F8042B0592E5
:101F5000002A03DA504244F40054059044F002048D
:101F6000761C30782E2816D116F8010F44F00404A0
:101F70002A280DD06FF02F023078A0F13003092B02
:101F800009D807EB870302EB4303C718761CF3E776
:101F900059F8047B761C30786C280FD006DC4C286E
:101FA00017D068280DD06A2814D104E0742810D006
:101FB0007A280FD10DE044F400140AE044F48014B0
:101FC00001E044F440147278824202D104F5801496
:101FD000761C761C307866280BD013DC582877D016
:101FE00009DC002875D04528F6D04628F4D04728CB
:101FF0001AD19DE118E0632835D0642879D065288E
:1020000012D195E1702873D008DC6728F1D06928D7
:102010006FD06E280DD06F2806D1B5E073282CD074
:10202000752875D0782874D05A46179990476D1C3A
:1020300075E1C4F30250022809D003280DD0D9F865
:10204000001004280DD00D6009F1040967E1D9F8EA
:102050000010EA17C1E90052F6E7D9F800100D8028
:10206000F2E70D70F0E719F8041B8DF8001000205E
:102070008DF80100EA46012003E059F804AB4FF067
:10208000FF3061074FF0000102D40DE008F10101BB
:102090008846B9420FDA8045F8DB1AF808100029A3
:1020A000F4D108E008F1010188468142FADB1AF810
:1020B00008100029F6D105985B46A0EB08072146D9
:1020C0003846179A00F094FA284400EB080507E018
:1020D0004DE029E10DE01AF8010B5A461799904797
:1020E000B8F10108F7D25B4621463846179A13E14A
:1020F00042E00A220092C4F302524FF0000A022A80
:1021000008D059F804CB032A4FEAEC710AD00DE04D
:1021100029E02AE009F1070121F00702F2E802C1F3
:10212000914609E00FFA8CFC4FEAEC71042A03D1C6
:102130004FFA8CFC4FEAEC71002907DA0A460021BD
:10214000DCF1000C61EB02012D2202E0220504D536
:102150002B228DF80420012203E0E20701D0202287
:10216000F7E7904659E00A2102E010220DE0102125
:102170004FF0000A00910BE010224FF0000A44F0EB
:1021800004040827009203E008224FF0000A00929E
:10219000C4F30252022A05D059F804CB0021032AC5
:1021A00008D009E009F1070121F00702F2E802C1B5
:1021B000914605E01FFA8CFC042A01D10CF0FF0CBB
:1021C0004FF00008220728D5702806D0009B83F026
:1021D000100353EA0A0305D00EE040228DF80420D4
:1021E000012208E05CEA010206D030228DF80420CA
:1021F0008DF8050002229046009B83F0080353EA05
:102200000A030AD15CEA010201D1620705D5302236
:102210008DF804204FF001087F1E582804D034A008
:1022200003900EA802900DE036A0F9E753466046F1
:10223000009AFDF7E5FF84460398825C0298401EF1
:10224000029002705CEA0100F0D1029806A9081A17
:1022500000F1200A600702D524F4803400E0012751
:10226000574502DDA7EB0A0000E0002000EB0A0161
:10227000009005984144401A0590E00306D45B465F
:102280002146179A059800F0B3F90544002706E0A7
:1022900001A85A46C05D179990476D1C7F1C4745A1
:1022A000F6DBE0030CD55B462146179A059800F053
:1022B0009FF9054404E030205A46179990476D1C59
:1022C0000099481E00900029F5DC08E00298029968
:1022D0005A460078491C0291179990476D1CBAF133
:1022E0000001AAF1010AF1DC65E100000928010002
:1022F000303132333435363738396162636465667C
:10230000000000003031323334353637383941423D
:10231000434445460000000000F058F90544761C8F
:10232000307800287FF4ECAD19B02846BDE8F08F76
:10233000620700D4062709F1070222F0070CFCE827
:102340000223E14603F000485FEA080C02D00FF2D6
:10235000702C0DE05FEA045C02D50FF2682C07E0F8
:102360005FEAC47C02D00FF2602C01E0AFF2700C87
:102370004FF0FF3823F00043CDF850C065280CD053
:1023800006DC452809D046281DD047283DD13DE030
:10239000662818D067287ED138E00021112F01DB94
:1023A000112000E0781CCDE9000106A90EA8FFF776
:1023B000DDFCDDE90F010E9A03910021009207F187
:1023C000010A04914DE04FF000400097CDE9011063
:1023D00006A90EA8FFF7CAFCDDE90F0203920E9BC7
:1023E00011990022DDF80CA00093049211B9791C18
:1023F00000EB010AB7EB0A0004D4C0F1FF3007F18B
:10240000010A0490AAEB0700019044E0012F00DAD2
:1024100001270021112F01DD112000E03846CDE910
:10242000000106A90EA8FFF7A1FCDDE90F010E9A35
:102430000391002104910092BA4621070CD403991C
:10244000514500DA8A46BAF1010F05DD009AAAF17A
:102450000101515C302908D0B84202DA10F1040FB2
:1024600006DA0121CDE9011015E0AAF10101E9E741
:10247000002805DC049901440491AAEB000102E064
:10248000411C514500DD8A460499401A401C0190C8
:102490004FF000400290200704D40198504501DB22
:1024A000CDF8048000208DF84F0002980DF14F0701
:1024B000B0F1004F25D02B200E9002984FF002086B
:1024C00000280CDA404202902D200E9007E00A21ED
:1024D0000298FDF7DEFF3031029007F8011DB8F1D8
:1024E0000001A8F10108F2DC02980028EFD1791E62
:1024F0000E980870307800F0200040F0450007F892
:10250000020D12A8C01B00F107081498007800B152
:10251000012000EB0A01019801EBE07105984144AC
:10252000401A401E0590E00306D45B462146179AE8
:10253000059800F05DF805441498007818B15A46E3
:10254000179990476D1CE00324D55B462146179AE6
:10255000059800F04DF805441CE00498002807DBBE
:10256000DDE90301884203DD0098405C179901E032
:10257000179930205A469047049805F10105401CF0
:1025800004900198401E019004D12E205A461799BC
:1025900090476D1CBAF10001AAF1010ADDDC05E0EB
:1025A00017F8010B5A46179990476D1CB8F10001B6
:1025B000A8F10108F4DC5B462146179A0598ABE6C2
:1025C0002D0000002B000000200000002DE9F0414C
:1025D000044600251E461746880404D405E0394603
:1025E0002020B0476D1C641EF9D52846BDE8F08157
:1025F0002DE9F041044600251E469046C80301D54A
:10260000302700E02027880404D505E041463846FD
:10261000B0476D1C641EF9D52846BDE8F0814A68B4
:10262000002A06D00A68531C0B6010704868401ED0
:102630004860704700B58DB00021ADF82C108022A5
:102640008DF82E208DF82F1009910A918DF83010F9
:102650000691342269468DEC030AFDF702FE0DB0A7
:1026600000BD00002DED048B90B0B7EE088A9FED01
:10267000399ADFED398AFEF723FAFFF77DF8FEF786
:1026800093FF37483549002401604FF4E131C0E938
:1026900001140C21C460C0E904418461C461FEF7E7
:1026A000BFFE2F490D948C392E480E9408600846C1
:1026B000FEF7B3F82A480D9400220DA98C380E9429
:1026C000FEF78AF8FEF7BAFFFEF7E6FF244800217E
:1026D0008C38FEF7F4F822480C23082200218C38AD
:1026E000FEF7E0F81E4818217838FEF7A5FD1C48D3
:1026F00000213C38FEF77CFEFEF7D4F9B0EE681AF4
:10270000F0EE490AB0EE480A6846FFF793FF6846C4
:10271000FEF74EF8144F786A01B26846FFF716F8D4
:1027200000F024F8064600F021F800F01FF800F051
:102730001DF8054600F01AF800F018F80446304677
:10274000FEF7E6FF2846FEF7E3FF2046FEF7E0FF30
:10275000E1E70000CDCCCC3DC729BA3D00440040A4
:102760009C000020007400400000014010B54FF0B4
:10277000E02080696421B0FBF1F0C0F57A74FEF7C7
:1027800091F900EB4001C1EBC01004EBC00010BD9B
:102790000000000000000000010203040607080911
:1027A0000000000001020304C82700080000002008
:1027B000100000004C1D0008D82700081000002061
:1027C000D00200005C1D00080100000010000000A5
:0827D000000000000024F400E9
:04000005080001C925
:00000001FF
